{
  "contractName": "visit",
  "abi": [
    {
      "inputs": [],
      "payable": false,
      "stateMutability": "nonpayable",
      "type": "constructor"
    },
    {
      "constant": true,
      "inputs": [],
      "name": "getTotalCount",
      "outputs": [
        {
          "name": "",
          "type": "uint256"
        }
      ],
      "payable": false,
      "stateMutability": "view",
      "type": "function"
    },
    {
      "constant": true,
      "inputs": [
        {
          "name": "sender",
          "type": "address"
        }
      ],
      "name": "getMemberInfo",
      "outputs": [
        {
          "name": "",
          "type": "uint256"
        }
      ],
      "payable": false,
      "stateMutability": "view",
      "type": "function"
    }
  ],
  "bytecode": "0x608060405234801561001057600080fd5b5061001961017c565b60008060003373ffffffffffffffffffffffffffffffffffffffff1673ffffffffffffffffffffffffffffffffffffffff1681526020019081526020016000206000015411156100b85760016000803373ffffffffffffffffffffffffffffffffffffffff1673ffffffffffffffffffffffffffffffffffffffff16815260200190815260200160002060000160008282540192505081905550610176565b60013390806001815401808255809150509060018203906000526020600020016000909192909190916101000a81548173ffffffffffffffffffffffffffffffffffffffff021916908373ffffffffffffffffffffffffffffffffffffffff160217905550506001816000018181525050806000803373ffffffffffffffffffffffffffffffffffffffff1673ffffffffffffffffffffffffffffffffffffffff168152602001908152602001600020600082015181600001559050505b50610190565b602060405190810160405280600081525090565b61018d8061019f6000396000f30060806040526004361061004c576000357c0100000000000000000000000000000000000000000000000000000000900463ffffffff16806356d42bb3146100515780635f1231ea1461007c575b600080fd5b34801561005d57600080fd5b506100666100d3565b6040518082815260200191505060405180910390f35b34801561008857600080fd5b506100bd600480360381019080803573ffffffffffffffffffffffffffffffffffffffff1690602001909291905050506100e0565b6040518082815260200191505060405180910390f35b6000600180549050905090565b60006100ea61014d565b6000808473ffffffffffffffffffffffffffffffffffffffff1673ffffffffffffffffffffffffffffffffffffffff1681526020019081526020016000206020604051908101604052908160008201548152505090508060000151915050919050565b6020604051908101604052806000815250905600a165627a7a723058202928dcccee084181696b9e4842edcd0a949e976720fc06f3793b04462d72bbc60029",
  "source": "pragma solidity ^0.4.24;\r\n\r\ncontract visit {\r\n    //방문을 처리할 함수욘^_^\r\n    struct Member{\r\n        uint count; //방문횟수를 다룰 것\r\n    }\r\n    mapping(address=> Member) member_map;\r\n    address[] members;\r\n\r\n        function getTotalCount() public view returns(uint){\r\n            return members.length;\r\n        }\r\n        function getMemberInfo(address sender) public view returns(uint){\r\n            Member memory m= member_map[sender];\r\n            return m.count;\r\n        }\r\n\r\n        function visit() public{\r\n        if(member_map[msg.sender].count>0){\r\n             member_map[msg.sender].count +=1;\r\n        }else{\r\n        members.push(msg.sender);\r\n        Member memory m;\r\n        m.count = 1;\r\n        member_map[msg.sender] = m; \r\n        }\r\n    }\r\n    }\r\n",
  "sourcePath": "C:\\dev\\klaytn\\visitor\\contracts\\visit.sol",
  "compiler": {
    "name": "solc",
    "version": "0.4.25+commit.59dbf8f1.Emscripten.clang"
  },
  "schemaVersion": "2.0.2",
  "updatedAt": "2019-08-07T04:29:22.497Z"
}